{
  "contractName": "LuckyToken",
  "abi": [
    {
      "inputs": [],
      "stateMutability": "nonpayable",
      "type": "constructor"
    },
    {
      "anonymous": false,
      "inputs": [
        {
          "indexed": true,
          "internalType": "address",
          "name": "owner",
          "type": "address"
        },
        {
          "indexed": true,
          "internalType": "address",
          "name": "spender",
          "type": "address"
        },
        {
          "indexed": false,
          "internalType": "uint256",
          "name": "value",
          "type": "uint256"
        }
      ],
      "name": "Approval",
      "type": "event"
    },
    {
      "anonymous": false,
      "inputs": [
        {
          "indexed": true,
          "internalType": "bytes32",
          "name": "role",
          "type": "bytes32"
        },
        {
          "indexed": true,
          "internalType": "bytes32",
          "name": "previousAdminRole",
          "type": "bytes32"
        },
        {
          "indexed": true,
          "internalType": "bytes32",
          "name": "newAdminRole",
          "type": "bytes32"
        }
      ],
      "name": "RoleAdminChanged",
      "type": "event"
    },
    {
      "anonymous": false,
      "inputs": [
        {
          "indexed": true,
          "internalType": "bytes32",
          "name": "role",
          "type": "bytes32"
        },
        {
          "indexed": true,
          "internalType": "address",
          "name": "account",
          "type": "address"
        },
        {
          "indexed": true,
          "internalType": "address",
          "name": "sender",
          "type": "address"
        }
      ],
      "name": "RoleGranted",
      "type": "event"
    },
    {
      "anonymous": false,
      "inputs": [
        {
          "indexed": true,
          "internalType": "bytes32",
          "name": "role",
          "type": "bytes32"
        },
        {
          "indexed": true,
          "internalType": "address",
          "name": "account",
          "type": "address"
        },
        {
          "indexed": true,
          "internalType": "address",
          "name": "sender",
          "type": "address"
        }
      ],
      "name": "RoleRevoked",
      "type": "event"
    },
    {
      "anonymous": false,
      "inputs": [
        {
          "indexed": true,
          "internalType": "address",
          "name": "from",
          "type": "address"
        },
        {
          "indexed": true,
          "internalType": "address",
          "name": "to",
          "type": "address"
        },
        {
          "indexed": false,
          "internalType": "uint256",
          "name": "value",
          "type": "uint256"
        }
      ],
      "name": "Transfer",
      "type": "event"
    },
    {
      "inputs": [],
      "name": "DEFAULT_ADMIN_ROLE",
      "outputs": [
        {
          "internalType": "bytes32",
          "name": "",
          "type": "bytes32"
        }
      ],
      "stateMutability": "view",
      "type": "function"
    },
    {
      "inputs": [],
      "name": "_totalSupply",
      "outputs": [
        {
          "internalType": "uint256",
          "name": "",
          "type": "uint256"
        }
      ],
      "stateMutability": "view",
      "type": "function"
    },
    {
      "inputs": [
        {
          "internalType": "address",
          "name": "owner",
          "type": "address"
        },
        {
          "internalType": "address",
          "name": "spender",
          "type": "address"
        }
      ],
      "name": "allowance",
      "outputs": [
        {
          "internalType": "uint256",
          "name": "",
          "type": "uint256"
        }
      ],
      "stateMutability": "view",
      "type": "function"
    },
    {
      "inputs": [
        {
          "internalType": "address",
          "name": "spender",
          "type": "address"
        },
        {
          "internalType": "uint256",
          "name": "amount",
          "type": "uint256"
        }
      ],
      "name": "approve",
      "outputs": [
        {
          "internalType": "bool",
          "name": "",
          "type": "bool"
        }
      ],
      "stateMutability": "nonpayable",
      "type": "function"
    },
    {
      "inputs": [
        {
          "internalType": "address",
          "name": "account",
          "type": "address"
        }
      ],
      "name": "balanceOf",
      "outputs": [
        {
          "internalType": "uint256",
          "name": "",
          "type": "uint256"
        }
      ],
      "stateMutability": "view",
      "type": "function"
    },
    {
      "inputs": [],
      "name": "decimals",
      "outputs": [
        {
          "internalType": "uint8",
          "name": "",
          "type": "uint8"
        }
      ],
      "stateMutability": "view",
      "type": "function"
    },
    {
      "inputs": [
        {
          "internalType": "address",
          "name": "spender",
          "type": "address"
        },
        {
          "internalType": "uint256",
          "name": "subtractedValue",
          "type": "uint256"
        }
      ],
      "name": "decreaseAllowance",
      "outputs": [
        {
          "internalType": "bool",
          "name": "",
          "type": "bool"
        }
      ],
      "stateMutability": "nonpayable",
      "type": "function"
    },
    {
      "inputs": [
        {
          "internalType": "bytes32",
          "name": "role",
          "type": "bytes32"
        }
      ],
      "name": "getRoleAdmin",
      "outputs": [
        {
          "internalType": "bytes32",
          "name": "",
          "type": "bytes32"
        }
      ],
      "stateMutability": "view",
      "type": "function"
    },
    {
      "inputs": [
        {
          "internalType": "bytes32",
          "name": "role",
          "type": "bytes32"
        },
        {
          "internalType": "uint256",
          "name": "index",
          "type": "uint256"
        }
      ],
      "name": "getRoleMember",
      "outputs": [
        {
          "internalType": "address",
          "name": "",
          "type": "address"
        }
      ],
      "stateMutability": "view",
      "type": "function"
    },
    {
      "inputs": [
        {
          "internalType": "bytes32",
          "name": "role",
          "type": "bytes32"
        }
      ],
      "name": "getRoleMemberCount",
      "outputs": [
        {
          "internalType": "uint256",
          "name": "",
          "type": "uint256"
        }
      ],
      "stateMutability": "view",
      "type": "function"
    },
    {
      "inputs": [
        {
          "internalType": "bytes32",
          "name": "role",
          "type": "bytes32"
        },
        {
          "internalType": "address",
          "name": "account",
          "type": "address"
        }
      ],
      "name": "grantRole",
      "outputs": [],
      "stateMutability": "nonpayable",
      "type": "function"
    },
    {
      "inputs": [
        {
          "internalType": "bytes32",
          "name": "role",
          "type": "bytes32"
        },
        {
          "internalType": "address",
          "name": "account",
          "type": "address"
        }
      ],
      "name": "hasRole",
      "outputs": [
        {
          "internalType": "bool",
          "name": "",
          "type": "bool"
        }
      ],
      "stateMutability": "view",
      "type": "function"
    },
    {
      "inputs": [
        {
          "internalType": "address",
          "name": "spender",
          "type": "address"
        },
        {
          "internalType": "uint256",
          "name": "addedValue",
          "type": "uint256"
        }
      ],
      "name": "increaseAllowance",
      "outputs": [
        {
          "internalType": "bool",
          "name": "",
          "type": "bool"
        }
      ],
      "stateMutability": "nonpayable",
      "type": "function"
    },
    {
      "inputs": [],
      "name": "name",
      "outputs": [
        {
          "internalType": "string",
          "name": "",
          "type": "string"
        }
      ],
      "stateMutability": "view",
      "type": "function"
    },
    {
      "inputs": [
        {
          "internalType": "bytes32",
          "name": "role",
          "type": "bytes32"
        },
        {
          "internalType": "address",
          "name": "account",
          "type": "address"
        }
      ],
      "name": "renounceRole",
      "outputs": [],
      "stateMutability": "nonpayable",
      "type": "function"
    },
    {
      "inputs": [
        {
          "internalType": "bytes32",
          "name": "role",
          "type": "bytes32"
        },
        {
          "internalType": "address",
          "name": "account",
          "type": "address"
        }
      ],
      "name": "revokeRole",
      "outputs": [],
      "stateMutability": "nonpayable",
      "type": "function"
    },
    {
      "inputs": [],
      "name": "symbol",
      "outputs": [
        {
          "internalType": "string",
          "name": "",
          "type": "string"
        }
      ],
      "stateMutability": "view",
      "type": "function"
    },
    {
      "inputs": [],
      "name": "teamPayoutAddress",
      "outputs": [
        {
          "internalType": "address",
          "name": "",
          "type": "address"
        }
      ],
      "stateMutability": "view",
      "type": "function"
    },
    {
      "inputs": [],
      "name": "totalSupply",
      "outputs": [
        {
          "internalType": "uint256",
          "name": "",
          "type": "uint256"
        }
      ],
      "stateMutability": "view",
      "type": "function"
    },
    {
      "inputs": [
        {
          "internalType": "address",
          "name": "recipient",
          "type": "address"
        },
        {
          "internalType": "uint256",
          "name": "amount",
          "type": "uint256"
        }
      ],
      "name": "transfer",
      "outputs": [
        {
          "internalType": "bool",
          "name": "",
          "type": "bool"
        }
      ],
      "stateMutability": "nonpayable",
      "type": "function"
    },
    {
      "inputs": [
        {
          "internalType": "address",
          "name": "sender",
          "type": "address"
        },
        {
          "internalType": "address",
          "name": "recipient",
          "type": "address"
        },
        {
          "internalType": "uint256",
          "name": "amount",
          "type": "uint256"
        }
      ],
      "name": "transferFrom",
      "outputs": [
        {
          "internalType": "bool",
          "name": "",
          "type": "bool"
        }
      ],
      "stateMutability": "nonpayable",
      "type": "function"
    },
    {
      "inputs": [],
      "name": "getSetterRole",
      "outputs": [
        {
          "internalType": "bytes32",
          "name": "",
          "type": "bytes32"
        }
      ],
      "stateMutability": "pure",
      "type": "function"
    },
    {
      "inputs": [
        {
          "internalType": "address",
          "name": "account",
          "type": "address"
        }
      ],
      "name": "getBalance",
      "outputs": [
        {
          "internalType": "uint256",
          "name": "",
          "type": "uint256"
        }
      ],
      "stateMutability": "view",
      "type": "function"
    },
    {
      "inputs": [
        {
          "internalType": "uint256",
          "name": "amount",
          "type": "uint256"
        }
      ],
      "name": "luckyBet",
      "outputs": [],
      "stateMutability": "payable",
      "type": "function"
    },
    {
      "inputs": [
        {
          "internalType": "uint256",
          "name": "sessionID",
          "type": "uint256"
        }
      ],
      "name": "returnSessionInfo",
      "outputs": [
        {
          "internalType": "address",
          "name": "account",
          "type": "address"
        },
        {
          "internalType": "uint256",
          "name": "session",
          "type": "uint256"
        },
        {
          "internalType": "uint256",
          "name": "amount",
          "type": "uint256"
        },
        {
          "internalType": "uint256",
          "name": "takeHome",
          "type": "uint256"
        },
        {
          "internalType": "uint256",
          "name": "loss",
          "type": "uint256"
        },
        {
          "internalType": "uint256",
          "name": "teamFee",
          "type": "uint256"
        },
        {
          "internalType": "uint256",
          "name": "luckyNumber",
          "type": "uint256"
        }
      ],
      "stateMutability": "view",
      "type": "function"
    },
    {
      "inputs": [],
      "name": "rand",
      "outputs": [
        {
          "internalType": "uint256",
          "name": "",
          "type": "uint256"
        }
      ],
      "stateMutability": "view",
      "type": "function"
    }
  ],
  "bytecode": "0x60806040526b1027e72f1f12813088000000600755620f424060085573583031d1113ad414f02576bd6afabfb302140225600960006101000a81548173ffffffffffffffffffffffffffffffffffffffff021916908373ffffffffffffffffffffffffffffffffffffffff16021790555073dd870fa1b7c4700f2bd7f44238821c26f7392148600a60006101000a81548173ffffffffffffffffffffffffffffffffffffffff021916908373ffffffffffffffffffffffffffffffffffffffff1602179055506064600b556107d0600c55610bb8600d5562012fd1600e55611b58600f55612328601055614e20601155611388601255611f40601355617530601455610bb8601555611b58601655619c406017553480156200012057600080fd5b506040518060400160405280600981526020017f4c75636b792042657400000000000000000000000000000000000000000000008152506040518060400160405280600381526020017f4c425400000000000000000000000000000000000000000000000000000000008152508160039080519060200190620001a59291906200069b565b508060049080519060200190620001be9291906200069b565b506012600560006101000a81548160ff021916908360ff16021790555050506200022d60405180807f5345545445525f524f4c45000000000000000000000000000000000000000000815250600b01905060405180910390203362000250640100000000026401000000009004565b6200024a336008546200026f640100000000026401000000009004565b6200074a565b6200026b828262000468640100000000026401000000009004565b5050565b600073ffffffffffffffffffffffffffffffffffffffff168273ffffffffffffffffffffffffffffffffffffffff16141562000313576040517f08c379a000000000000000000000000000000000000000000000000000000000815260040180806020018281038252601f8152602001807f45524332303a206d696e7420746f20746865207a65726f20616464726573730081525060200191505060405180910390fd5b62000330600083836200051e640100000000026401000000009004565b620003558160025462000523640100000000026200263f179091906401000000009004565b600281905550620003bc816000808573ffffffffffffffffffffffffffffffffffffffff1673ffffffffffffffffffffffffffffffffffffffff1681526020019081526020016000205462000523640100000000026200263f179091906401000000009004565b6000808473ffffffffffffffffffffffffffffffffffffffff1673ffffffffffffffffffffffffffffffffffffffff168152602001908152602001600020819055508173ffffffffffffffffffffffffffffffffffffffff16600073ffffffffffffffffffffffffffffffffffffffff167fddf252ad1be2c89b69c2b068fc378daa952ba7f163c4a11628f55a4df523b3ef836040518082815260200191505060405180910390a35050565b620004a08160066000858152602001908152602001600020600001620005ac6401000000000262002bd1179091906401000000009004565b156200051a57620004bf620005ed640100000000026401000000009004565b73ffffffffffffffffffffffffffffffffffffffff168173ffffffffffffffffffffffffffffffffffffffff16837f2f8788117e7eff1d82e926ec794901d17c78024a50270940304540a733656f0d60405160405180910390a45b5050565b505050565b600080828401905083811015620005a2576040517f08c379a000000000000000000000000000000000000000000000000000000000815260040180806020018281038252601b8152602001807f536166654d6174683a206164646974696f6e206f766572666c6f77000000000081525060200191505060405180910390fd5b8091505092915050565b6000620005e5836000018373ffffffffffffffffffffffffffffffffffffffff16600102620005f5640100000000026401000000009004565b905092915050565b600033905090565b600062000612838362000678640100000000026401000000009004565b6200066d57826000018290806001815401808255809150506001900390600052602060002001600090919091909150558260000180549050836001016000848152602001908152602001600020819055506001905062000672565b600090505b92915050565b600080836001016000848152602001908152602001600020541415905092915050565b828054600181600116156101000203166002900490600052602060002090601f016020900481019282601f10620006de57805160ff19168380011785556200070f565b828001600101855582156200070f579182015b828111156200070e578251825591602001919060010190620006f1565b5b5090506200071e919062000722565b5090565b6200074791905b808211156200074357600081600090555060010162000729565b5090565b90565b6131a4806200075a6000396000f3fe60806040526004361061019e576000357c0100000000000000000000000000000000000000000000000000000000900480639010d07c116100ee578063a9059cbb116100a7578063d547741f11610081578063d547741f146109ae578063dd62ed3e14610a09578063df5888de14610a8e578063f8b2cb4f14610ae55761019e565b8063a9059cbb14610847578063c8dae72a146108ba578063ca15c8731461095f5761019e565b80639010d07c146105f357806391d148541461067857806395d89b41146106eb578063a217fddf1461077b578063a457c2d7146107a6578063a5a23506146108195761019e565b80632f2ff15d1161015b578063395093511161013557806339509351146104c55780633b3dca76146105385780633eaaf86b1461056357806370a082311461058e5761019e565b80632f2ff15d146103de578063313ce5671461043957806336568abe1461046a5761019e565b806306fdde03146101a3578063095ea7b31461023357806318160ddd146102a657806323b872dd146102d1578063248a9ca31461036457806329c67e7f146103b3575b600080fd5b3480156101af57600080fd5b506101b8610b4a565b6040518080602001828103825283818151815260200191508051906020019080838360005b838110156101f85780820151818401526020810190506101dd565b50505050905090810190601f1680156102255780820380516001836020036101000a031916815260200191505b509250505060405180910390f35b34801561023f57600080fd5b5061028c6004803603604081101561025657600080fd5b81019080803573ffffffffffffffffffffffffffffffffffffffff16906020019092919080359060200190929190505050610bec565b604051808215151515815260200191505060405180910390f35b3480156102b257600080fd5b506102bb610c0a565b6040518082815260200191505060405180910390f35b3480156102dd57600080fd5b5061034a600480360360608110156102f457600080fd5b81019080803573ffffffffffffffffffffffffffffffffffffffff169060200190929190803573ffffffffffffffffffffffffffffffffffffffff16906020019092919080359060200190929190505050610c14565b604051808215151515815260200191505060405180910390f35b34801561037057600080fd5b5061039d6004803603602081101561038757600080fd5b8101908080359060200190929190505050610ced565b6040518082815260200191505060405180910390f35b3480156103bf57600080fd5b506103c8610d0d565b6040518082815260200191505060405180910390f35b3480156103ea57600080fd5b506104376004803603604081101561040157600080fd5b8101908080359060200190929190803573ffffffffffffffffffffffffffffffffffffffff169060200190929190505050610d4a565b005b34801561044557600080fd5b5061044e610dd4565b604051808260ff1660ff16815260200191505060405180910390f35b34801561047657600080fd5b506104c36004803603604081101561048d57600080fd5b8101908080359060200190929190803573ffffffffffffffffffffffffffffffffffffffff169060200190929190505050610deb565b005b3480156104d157600080fd5b5061051e600480360360408110156104e857600080fd5b81019080803573ffffffffffffffffffffffffffffffffffffffff16906020019092919080359060200190929190505050610e84565b604051808215151515815260200191505060405180910390f35b34801561054457600080fd5b5061054d610f37565b6040518082815260200191505060405180910390f35b34801561056f57600080fd5b50610578611063565b6040518082815260200191505060405180910390f35b34801561059a57600080fd5b506105dd600480360360208110156105b157600080fd5b81019080803573ffffffffffffffffffffffffffffffffffffffff169060200190929190505050611069565b6040518082815260200191505060405180910390f35b3480156105ff57600080fd5b506106366004803603604081101561061657600080fd5b8101908080359060200190929190803590602001909291905050506110b1565b604051808273ffffffffffffffffffffffffffffffffffffffff1673ffffffffffffffffffffffffffffffffffffffff16815260200191505060405180910390f35b34801561068457600080fd5b506106d16004803603604081101561069b57600080fd5b8101908080359060200190929190803573ffffffffffffffffffffffffffffffffffffffff1690602001909291905050506110e3565b604051808215151515815260200191505060405180910390f35b3480156106f757600080fd5b50610700611115565b6040518080602001828103825283818151815260200191508051906020019080838360005b83811015610740578082015181840152602081019050610725565b50505050905090810190601f16801561076d5780820380516001836020036101000a031916815260200191505b509250505060405180910390f35b34801561078757600080fd5b506107906111b7565b6040518082815260200191505060405180910390f35b3480156107b257600080fd5b506107ff600480360360408110156107c957600080fd5b81019080803573ffffffffffffffffffffffffffffffffffffffff169060200190929190803590602001909291905050506111bf565b604051808215151515815260200191505060405180910390f35b6108456004803603602081101561082f57600080fd5b810190808035906020019092919050505061128c565b005b34801561085357600080fd5b506108a06004803603604081101561086a57600080fd5b81019080803573ffffffffffffffffffffffffffffffffffffffff16906020019092919080359060200190929190505050611d25565b604051808215151515815260200191505060405180910390f35b3480156108c657600080fd5b506108f3600480360360208110156108dd57600080fd5b8101908080359060200190929190505050611d43565b604051808873ffffffffffffffffffffffffffffffffffffffff1673ffffffffffffffffffffffffffffffffffffffff16815260200187815260200186815260200185815260200184815260200183815260200182815260200197505050505050505060405180910390f35b34801561096b57600080fd5b506109986004803603602081101561098257600080fd5b8101908080359060200190929190505050611e28565b6040518082815260200191505060405180910390f35b3480156109ba57600080fd5b50610a07600480360360408110156109d157600080fd5b8101908080359060200190929190803573ffffffffffffffffffffffffffffffffffffffff169060200190929190505050611e4f565b005b348015610a1557600080fd5b50610a7860048036036040811015610a2c57600080fd5b81019080803573ffffffffffffffffffffffffffffffffffffffff169060200190929190803573ffffffffffffffffffffffffffffffffffffffff169060200190929190505050611ed9565b6040518082815260200191505060405180910390f35b348015610a9a57600080fd5b50610aa3611f60565b604051808273ffffffffffffffffffffffffffffffffffffffff1673ffffffffffffffffffffffffffffffffffffffff16815260200191505060405180910390f35b348015610af157600080fd5b50610b3460048036036020811015610b0857600080fd5b81019080803573ffffffffffffffffffffffffffffffffffffffff169060200190929190505050611f86565b6040518082815260200191505060405180910390f35b606060038054600181600116156101000203166002900480601f016020809104026020016040519081016040528092919081815260200182805460018160011615610100020316600290048015610be25780601f10610bb757610100808354040283529160200191610be2565b820191906000526020600020905b815481529060010190602001808311610bc557829003601f168201915b5050505050905090565b6000610c00610bf9611f97565b8484611f9f565b6001905092915050565b6000600254905090565b6000610c21848484612196565b610ce284610c2d611f97565b610cdd8560405180606001604052806028815260200161308960289139600160008b73ffffffffffffffffffffffffffffffffffffffff1673ffffffffffffffffffffffffffffffffffffffff1681526020019081526020016000206000610c93611f97565b73ffffffffffffffffffffffffffffffffffffffff1673ffffffffffffffffffffffffffffffffffffffff168152602001908152602001600020546124579092919063ffffffff16565b611f9f565b600190509392505050565b600060066000838152602001908152602001600020600201549050919050565b600060405180807f5345545445525f524f4c45000000000000000000000000000000000000000000815250600b0190506040518091039020905090565b610d716006600084815260200190815260200160002060020154610d6c611f97565b6110e3565b610dc6576040517f08c379a000000000000000000000000000000000000000000000000000000000815260040180806020018281038252602f815260200180612f9f602f913960400191505060405180910390fd5b610dd08282612517565b5050565b6000600560009054906101000a900460ff16905090565b610df3611f97565b73ffffffffffffffffffffffffffffffffffffffff168173ffffffffffffffffffffffffffffffffffffffff1614610e76576040517f08c379a000000000000000000000000000000000000000000000000000000000815260040180806020018281038252602f815260200180613140602f913960400191505060405180910390fd5b610e8082826125ab565b5050565b6000610f2d610e91611f97565b84610f288560016000610ea2611f97565b73ffffffffffffffffffffffffffffffffffffffff1673ffffffffffffffffffffffffffffffffffffffff16815260200190815260200160002060008973ffffffffffffffffffffffffffffffffffffffff1673ffffffffffffffffffffffffffffffffffffffff1681526020019081526020016000205461263f90919063ffffffff16565b611f9f565b6001905092915050565b600080434233604051602001808273ffffffffffffffffffffffffffffffffffffffff1673ffffffffffffffffffffffffffffffffffffffff166c01000000000000000000000000028152601401915050604051602081830303815290604052805190602001206001900481610fa957fe5b04454241604051602001808273ffffffffffffffffffffffffffffffffffffffff1673ffffffffffffffffffffffffffffffffffffffff166c0100000000000000000000000002815260140191505060405160208183030381529060405280519060200120600190048161101957fe5b044442010101010160405160200180828152602001915050604051602081830303815290604052805190602001206001900490506103e880828161105957fe5b0402810391505090565b60075481565b60008060008373ffffffffffffffffffffffffffffffffffffffff1673ffffffffffffffffffffffffffffffffffffffff168152602001908152602001600020549050919050565b60006110db82600660008681526020019081526020016000206000016126c790919063ffffffff16565b905092915050565b600061110d82600660008681526020019081526020016000206000016126e290919063ffffffff16565b905092915050565b606060048054600181600116156101000203166002900480601f0160208091040260200160405190810160405280929190818152602001828054600181600116156101000203166002900480156111ad5780601f10611182576101008083540402835291602001916111ad565b820191906000526020600020905b81548152906001019060200180831161119057829003601f168201915b5050505050905090565b600060010281565b60006112826111cc611f97565b8461127d8560405180606001604052806025815260200161311b60259139600160006111f6611f97565b73ffffffffffffffffffffffffffffffffffffffff1673ffffffffffffffffffffffffffffffffffffffff16815260200190815260200160002060008a73ffffffffffffffffffffffffffffffffffffffff1673ffffffffffffffffffffffffffffffffffffffff168152602001908152602001600020546124579092919063ffffffff16565b611f9f565b6001905092915050565b6002811015611303576040517f08c379a000000000000000000000000000000000000000000000000000000000815260040180806020018281038252601c8152602001807f43616e6e6f74207374616b65206c657373207468616e2032204c42540000000081525060200191505060405180910390fd5b606481111561137a576040517f08c379a000000000000000000000000000000000000000000000000000000000815260040180806020018281038252601e8152602001807f43616e6e6f74207374616b65206d6f7265207468616e20313030204c4254000081525060200191505060405180910390fd5b611390600160185461263f90919063ffffffff16565b6018819055506000601854905060006113a7610f37565b9050600080600080600080600289101580156113c45750600a8911155b1561165457610309871415611411576113fc6127106113ee600e548c61271290919063ffffffff16565b61279890919063ffffffff16565b94506000935061140c33866127e2565b611653565b61038487101580611423575060648711155b15611466576114516127106114436011548c61271290919063ffffffff16565b61279890919063ffffffff16565b94506000935061146133866127e2565b611652565b61032087101580611478575060c88711155b156114cc576114a66127106114986010548c61271290919063ffffffff16565b61279890919063ffffffff16565b94506114bb858a6129a990919063ffffffff16565b93506114c733856129f3565b611651565b6102bc871015806114df57506102588711155b156115335761150d6127106114ff600f548c61271290919063ffffffff16565b61279890919063ffffffff16565b9450611522858a6129a990919063ffffffff16565b935061152e33856129f3565b611650565b6102bc87108015611545575061025887115b1561164f5760009450889350600589101561164357611583612710611575600d548761271290919063ffffffff16565b61279890919063ffffffff16565b92506115ae6127106115a0600c548761271290919063ffffffff16565b61279890919063ffffffff16565b91506115c3828461263f90919063ffffffff16565b95506115d886856129a990919063ffffffff16565b9050611606600960009054906101000a900473ffffffffffffffffffffffffffffffffffffffff1684611d25565b50611633600a60009054906101000a900473ffffffffffffffffffffffffffffffffffffffff1683611d25565b5061163e33826129f3565b61164e565b61164d33856129f3565b5b5b5b5b5b5b5b600b8910158015611666575060328911155b156118dd576103098714156116b35761169e612710611690600e548c61271290919063ffffffff16565b61279890919063ffffffff16565b9450600093506116ae33866127e2565b6118dc565b610384871015806116c5575060648711155b15611708576116f36127106116e56014548c61271290919063ffffffff16565b61279890919063ffffffff16565b94506000935061170333866127e2565b6118db565b6103208710158061171a575060c88711155b1561176e5761174861271061173a6013548c61271290919063ffffffff16565b61279890919063ffffffff16565b945061175d858a6129a990919063ffffffff16565b935061176933856129f3565b6118da565b6102bc8710158061178157506102588711155b156117d5576117af6127106117a16012548c61271290919063ffffffff16565b61279890919063ffffffff16565b94506117c4858a6129a990919063ffffffff16565b93506117d033856129f3565b6118d9565b6102bc871080156117e7575061025887115b156118d8576000945088935061181c61271061180e600d548761271290919063ffffffff16565b61279890919063ffffffff16565b9250611847612710611839600c548761271290919063ffffffff16565b61279890919063ffffffff16565b915061185c828461263f90919063ffffffff16565b955061187186856129a990919063ffffffff16565b905061189f600960009054906101000a900473ffffffffffffffffffffffffffffffffffffffff1684611d25565b506118cc600a60009054906101000a900473ffffffffffffffffffffffffffffffffffffffff1683611d25565b506118d733826129f3565b5b5b5b5b5b5b603389101580156118ef575060648911155b15611b665761030987141561193c57611927612710611919600e548c61271290919063ffffffff16565b61279890919063ffffffff16565b94506000935061193733866127e2565b611b65565b6103848710158061194e575060648711155b156119915761197c61271061196e6017548c61271290919063ffffffff16565b61279890919063ffffffff16565b94506000935061198c33866127e2565b611b64565b610320871015806119a3575060c88711155b156119f7576119d16127106119c36016548c61271290919063ffffffff16565b61279890919063ffffffff16565b94506119e6858a6129a990919063ffffffff16565b93506119f233856129f3565b611b63565b6102bc87101580611a0a57506102588711155b15611a5e57611a38612710611a2a6015548c61271290919063ffffffff16565b61279890919063ffffffff16565b9450611a4d858a6129a990919063ffffffff16565b9350611a5933856129f3565b611b62565b6102bc87108015611a70575061025887115b15611b615760009450889350611aa5612710611a97600d548761271290919063ffffffff16565b61279890919063ffffffff16565b9250611ad0612710611ac2600c548761271290919063ffffffff16565b61279890919063ffffffff16565b9150611ae5828461263f90919063ffffffff16565b9550611afa86856129a990919063ffffffff16565b9050611b28600960009054906101000a900473ffffffffffffffffffffffffffffffffffffffff1684611d25565b50611b55600a60009054906101000a900473ffffffffffffffffffffffffffffffffffffffff1683611d25565b50611b6033826129f3565b5b5b5b5b5b5b611b6e612f06565b6040518060e001604052803373ffffffffffffffffffffffffffffffffffffffff1681526020018a81526020018b815260200187815260200186815260200188815260200189815250905080601960003373ffffffffffffffffffffffffffffffffffffffff1673ffffffffffffffffffffffffffffffffffffffff16815260200190815260200160002060008201518160000160006101000a81548173ffffffffffffffffffffffffffffffffffffffff021916908373ffffffffffffffffffffffffffffffffffffffff1602179055506020820151816001015560408201518160020155606082015181600301556080820151816004015560a0820151816005015560c0820151816006015590505080601a60008b815260200190815260200160002060008201518160000160006101000a81548173ffffffffffffffffffffffffffffffffffffffff021916908373ffffffffffffffffffffffffffffffffffffffff1602179055506020820151816001015560408201518160020155606082015181600301556080820151816004015560a0820151816005015560c0820151816006015590505050505050505050505050565b6000611d39611d32611f97565b8484612196565b6001905092915050565b6000806000806000806000601a600089815260200190815260200160002060000160009054906101000a900473ffffffffffffffffffffffffffffffffffffffff16601a60008a815260200190815260200160002060010154601a60008b815260200190815260200160002060020154601a60008c815260200190815260200160002060030154601a60008d815260200190815260200160002060040154601a60008e815260200190815260200160002060050154601a60008f8152602001908152602001600020600601549650965096509650965096509650919395979092949650565b6000611e4860066000848152602001908152602001600020600001612bb7565b9050919050565b611e766006600084815260200190815260200160002060020154611e71611f97565b6110e3565b611ecb576040517f08c379a00000000000000000000000000000000000000000000000000000000081526004018080602001828103825260308152602001806130386030913960400191505060405180910390fd5b611ed582826125ab565b5050565b6000600160008473ffffffffffffffffffffffffffffffffffffffff1673ffffffffffffffffffffffffffffffffffffffff16815260200190815260200160002060008373ffffffffffffffffffffffffffffffffffffffff1673ffffffffffffffffffffffffffffffffffffffff16815260200190815260200160002054905092915050565b600a60009054906101000a900473ffffffffffffffffffffffffffffffffffffffff1681565b6000611f9182611069565b50919050565b600033905090565b600073ffffffffffffffffffffffffffffffffffffffff168373ffffffffffffffffffffffffffffffffffffffff161415612025576040517f08c379a00000000000000000000000000000000000000000000000000000000081526004018080602001828103825260248152602001806130f76024913960400191505060405180910390fd5b600073ffffffffffffffffffffffffffffffffffffffff168273ffffffffffffffffffffffffffffffffffffffff1614156120ab576040517f08c379a0000000000000000000000000000000000000000000000000000000008152600401808060200182810382526022815260200180612ff06022913960400191505060405180910390fd5b80600160008573ffffffffffffffffffffffffffffffffffffffff1673ffffffffffffffffffffffffffffffffffffffff16815260200190815260200160002060008473ffffffffffffffffffffffffffffffffffffffff1673ffffffffffffffffffffffffffffffffffffffff168152602001908152602001600020819055508173ffffffffffffffffffffffffffffffffffffffff168373ffffffffffffffffffffffffffffffffffffffff167f8c5be1e5ebec7d5bd14f71427d1e84f3dd0314c0f7b2291e5b200ac8c7c3b925836040518082815260200191505060405180910390a3505050565b600073ffffffffffffffffffffffffffffffffffffffff168373ffffffffffffffffffffffffffffffffffffffff16141561221c576040517f08c379a00000000000000000000000000000000000000000000000000000000081526004018080602001828103825260258152602001806130d26025913960400191505060405180910390fd5b600073ffffffffffffffffffffffffffffffffffffffff168273ffffffffffffffffffffffffffffffffffffffff1614156122a2576040517f08c379a0000000000000000000000000000000000000000000000000000000008152600401808060200182810382526023815260200180612f7c6023913960400191505060405180910390fd5b6122ad838383612bcc565b61231881604051806060016040528060268152602001613012602691396000808773ffffffffffffffffffffffffffffffffffffffff1673ffffffffffffffffffffffffffffffffffffffff168152602001908152602001600020546124579092919063ffffffff16565b6000808573ffffffffffffffffffffffffffffffffffffffff1673ffffffffffffffffffffffffffffffffffffffff168152602001908152602001600020819055506123ab816000808573ffffffffffffffffffffffffffffffffffffffff1673ffffffffffffffffffffffffffffffffffffffff1681526020019081526020016000205461263f90919063ffffffff16565b6000808473ffffffffffffffffffffffffffffffffffffffff1673ffffffffffffffffffffffffffffffffffffffff168152602001908152602001600020819055508173ffffffffffffffffffffffffffffffffffffffff168373ffffffffffffffffffffffffffffffffffffffff167fddf252ad1be2c89b69c2b068fc378daa952ba7f163c4a11628f55a4df523b3ef836040518082815260200191505060405180910390a3505050565b6000838311158290612504576040517f08c379a00000000000000000000000000000000000000000000000000000000081526004018080602001828103825283818151815260200191508051906020019080838360005b838110156124c95780820151818401526020810190506124ae565b50505050905090810190601f1680156124f65780820380516001836020036101000a031916815260200191505b509250505060405180910390fd5b5060008385039050809150509392505050565b61253f8160066000858152602001908152602001600020600001612bd190919063ffffffff16565b156125a75761254c611f97565b73ffffffffffffffffffffffffffffffffffffffff168173ffffffffffffffffffffffffffffffffffffffff16837f2f8788117e7eff1d82e926ec794901d17c78024a50270940304540a733656f0d60405160405180910390a45b5050565b6125d38160066000858152602001908152602001600020600001612c0190919063ffffffff16565b1561263b576125e0611f97565b73ffffffffffffffffffffffffffffffffffffffff168173ffffffffffffffffffffffffffffffffffffffff16837ff6391f5c32d9c69d2a47ea670b442974b53935d1edc7fd64eb21e047a839171b60405160405180910390a45b5050565b6000808284019050838110156126bd576040517f08c379a000000000000000000000000000000000000000000000000000000000815260040180806020018281038252601b8152602001807f536166654d6174683a206164646974696f6e206f766572666c6f77000000000081525060200191505060405180910390fd5b8091505092915050565b60006126d68360000183612c31565b60019004905092915050565b600061270a836000018373ffffffffffffffffffffffffffffffffffffffff16600102612cb4565b905092915050565b6000808314156127255760009050612792565b600082840290508284828161273657fe5b041461278d576040517f08c379a00000000000000000000000000000000000000000000000000000000081526004018080602001828103825260218152602001806130686021913960400191505060405180910390fd5b809150505b92915050565b60006127da83836040518060400160405280601a81526020017f536166654d6174683a206469766973696f6e206279207a65726f000000000000815250612cd7565b905092915050565b600073ffffffffffffffffffffffffffffffffffffffff168273ffffffffffffffffffffffffffffffffffffffff161415612885576040517f08c379a000000000000000000000000000000000000000000000000000000000815260040180806020018281038252601f8152602001807f45524332303a206d696e7420746f20746865207a65726f20616464726573730081525060200191505060405180910390fd5b61289160008383612bcc565b6128a68160025461263f90919063ffffffff16565b6002819055506128fd816000808573ffffffffffffffffffffffffffffffffffffffff1673ffffffffffffffffffffffffffffffffffffffff1681526020019081526020016000205461263f90919063ffffffff16565b6000808473ffffffffffffffffffffffffffffffffffffffff1673ffffffffffffffffffffffffffffffffffffffff168152602001908152602001600020819055508173ffffffffffffffffffffffffffffffffffffffff16600073ffffffffffffffffffffffffffffffffffffffff167fddf252ad1be2c89b69c2b068fc378daa952ba7f163c4a11628f55a4df523b3ef836040518082815260200191505060405180910390a35050565b60006129eb83836040518060400160405280601e81526020017f536166654d6174683a207375627472616374696f6e206f766572666c6f770000815250612457565b905092915050565b600073ffffffffffffffffffffffffffffffffffffffff168273ffffffffffffffffffffffffffffffffffffffff161415612a79576040517f08c379a00000000000000000000000000000000000000000000000000000000081526004018080602001828103825260218152602001806130b16021913960400191505060405180910390fd5b612a8582600083612bcc565b612af081604051806060016040528060228152602001612fce602291396000808673ffffffffffffffffffffffffffffffffffffffff1673ffffffffffffffffffffffffffffffffffffffff168152602001908152602001600020546124579092919063ffffffff16565b6000808473ffffffffffffffffffffffffffffffffffffffff1673ffffffffffffffffffffffffffffffffffffffff16815260200190815260200160002081905550612b47816002546129a990919063ffffffff16565b600281905550600073ffffffffffffffffffffffffffffffffffffffff168273ffffffffffffffffffffffffffffffffffffffff167fddf252ad1be2c89b69c2b068fc378daa952ba7f163c4a11628f55a4df523b3ef836040518082815260200191505060405180910390a35050565b6000612bc582600001612d9d565b9050919050565b505050565b6000612bf9836000018373ffffffffffffffffffffffffffffffffffffffff16600102612dae565b905092915050565b6000612c29836000018373ffffffffffffffffffffffffffffffffffffffff16600102612e1e565b905092915050565b600081836000018054905011612c92576040517f08c379a0000000000000000000000000000000000000000000000000000000008152600401808060200182810382526022815260200180612f5a6022913960400191505060405180910390fd5b826000018281548110612ca157fe5b9060005260206000200154905092915050565b600080836001016000848152602001908152602001600020541415905092915050565b60008083118290612d83576040517f08c379a00000000000000000000000000000000000000000000000000000000081526004018080602001828103825283818151815260200191508051906020019080838360005b83811015612d48578082015181840152602081019050612d2d565b50505050905090810190601f168015612d755780820380516001836020036101000a031916815260200191505b509250505060405180910390fd5b506000838581612d8f57fe5b049050809150509392505050565b600081600001805490509050919050565b6000612dba8383612cb4565b612e13578260000182908060018154018082558091505060019003906000526020600020016000909190919091505582600001805490508360010160008481526020019081526020016000208190555060019050612e18565b600090505b92915050565b60008083600101600084815260200190815260200160002054905060008114612efa5760006001820390506000600186600001805490500390506000866000018281548110612e6957fe5b9060005260206000200154905080876000018481548110612e8657fe5b9060005260206000200181905550600183018760010160008381526020019081526020016000208190555086600001805480612ebe57fe5b60019003818190600052602060002001600090559055866001016000878152602001908152602001600020600090556001945050505050612f00565b60009150505b92915050565b6040518060e00160405280600073ffffffffffffffffffffffffffffffffffffffff168152602001600081526020016000815260200160008152602001600081526020016000815260200160008152509056fe456e756d657261626c655365743a20696e646578206f7574206f6620626f756e647345524332303a207472616e7366657220746f20746865207a65726f2061646472657373416363657373436f6e74726f6c3a2073656e646572206d75737420626520616e2061646d696e20746f206772616e7445524332303a206275726e20616d6f756e7420657863656564732062616c616e636545524332303a20617070726f766520746f20746865207a65726f206164647265737345524332303a207472616e7366657220616d6f756e7420657863656564732062616c616e6365416363657373436f6e74726f6c3a2073656e646572206d75737420626520616e2061646d696e20746f207265766f6b65536166654d6174683a206d756c7469706c69636174696f6e206f766572666c6f7745524332303a207472616e7366657220616d6f756e74206578636565647320616c6c6f77616e636545524332303a206275726e2066726f6d20746865207a65726f206164647265737345524332303a207472616e736665722066726f6d20746865207a65726f206164647265737345524332303a20617070726f76652066726f6d20746865207a65726f206164647265737345524332303a2064656372656173656420616c6c6f77616e63652062656c6f77207a65726f416363657373436f6e74726f6c3a2063616e206f6e6c792072656e6f756e636520726f6c657320666f722073656c66a26469706673582212201576a5a4d376d1cb8744fa1c942b17bbdb87f5498bc9d6a52d899e4f8e3186b364736f6c63430006020033",
  "source": "// SPDX-License-Identifier: MIT\n\npragma solidity ^0.6.2;\n// For compiling with Truffle use imports bellow and comment out Remix imports\n// Truffle Imports\nimport \"@openzeppelin/contracts/token/ERC20/ERC20.sol\";\nimport \"@openzeppelin/contracts/access/AccessControl.sol\";\nimport \"@openzeppelin/contracts/math/SafeMath.sol\";\nimport \"@openzeppelin/contracts/access/Ownable.sol\";\nimport \"@openzeppelin/contracts/utils/Address.sol\";\n\n// For compiling with Remix use imports below\n// Remix Imports\n/*\nimport \"https://github.com/OpenZeppelin/openzeppelin-contracts/blob/master/contracts/token/ERC20/ERC20.sol\";\nimport \"https://github.com/OpenZeppelin/openzeppelin-contracts/blob/master/contracts/access/AccessControl.sol\";\nimport \"https://github.com/OpenZeppelin/openzeppelin-contracts/blob/master/contracts/math/SafeMath.sol\";\nimport \"https://github.com/OpenZeppelin/openzeppelin-contracts/blob/master/contracts/utils/Address.sol\";\nimport \"https://github.com/OpenZeppelin/openzeppelin-contracts/blob/master/contracts/utils/EnumerableSet.sol\";\n*/\n\n\ncontract LuckyToken is ERC20(\"Lucky Bet\", \"LBT\"), AccessControl {\n    using SafeMath for uint256;\n\n    bytes32 private constant SETTER_ROLE = keccak256(\"SETTER_ROLE\");\n\n    uint256 public _totalSupply = 5000000000e18; //5,000,000,000\n    uint256 internal _premine = 1000000;\n    \n    address internal _owner = 0x583031D1113aD414F02576BD6afaBfb302140225;\n    address public teamPayoutAddress = 0xdD870fA1b7C4700F2BD7f44238821C26f7392148;\n    \n    uint256 moderatorPercent = 100; // 2%\n    uint256 projectsPercent = 2000; // 20%\n    uint256 ownersPercent = 3000; // 30%\n    \n    // Jackpot\n    uint256 jackpot777 = 77777; // 777%\n    \n    // 300 point range\n    uint256 smallBetSmallWin = 7000; // 70%\n    uint256 smallBetMediumWin = 9000; // 90%\n    uint256 smallBetBigWin = 20000; // 200%\n        \n    // 200 point range\n    uint256 mediumBetSmallWin = 5000; // 50%\n    uint256 mediumBetMediumWin = 8000; // 80%\n    uint256 mediumBetBigWin = 30000; // 300%\n        \n    // 100 point range\n    uint256 largeBetSmallWin = 3000; // 30%\n    uint256 largeBetMediumWin = 7000; // 70%\n    uint256 largeBetBigWin = 40000; // 400%\n\n    uint256 private _sessionsIds;\n    \n    mapping(address => gameData) addressGameHistory;\n    mapping(uint256 => gameData) sessionGameHistory;\n    mapping (address => uint256) balances;\n    \n    struct gameData { \n        address account;\n        uint256 session;\n        uint256 amount;\n        uint256 takeHome;\n        uint256 loss;\n        uint256 teamFee;\n        uint256 luckyNumber;\n    }\n    \n\n    \n    modifier onlySetter() {\n        require(hasRole(SETTER_ROLE, _msgSender()), \"Caller is not a setter\");\n        _;\n    }\n\n    constructor() public {\n        _setupRole(SETTER_ROLE, msg.sender);\n        _mint(msg.sender, _premine);\n    }\n\n\n    function getSetterRole() external pure returns (bytes32) {\n        return SETTER_ROLE;\n    }\n\n    function getBalance(address account) public view returns (uint256){\n        balanceOf(account);\n    }\n\n    function luckyBet(uint256 amount) public payable{\n        require(amount >= 2, \"Cannot stake less than 2 LBT\");\n        require(amount <= 100, \"Cannot stake more than 100 LBT\");\n        //_burn(msg.sender, amount);\n        _sessionsIds = _sessionsIds.add(1);\n        \n        uint256 sessionId = _sessionsIds;\n        uint256 luckyNumber;\n        luckyNumber = rand();\n        uint256 totalFees;\n        uint256 reward;\n        uint256 loss;\n        uint256 ownersCut;\n        uint256 projectsCut;\n        uint256 feeAfterCuts;\n\n        \n        // ------------------------------------------------------------------------\n        //                             Small Bet\n        // ------------------------------------------------------------------------\n        if(amount >= 2 && amount <= 10){\n            if(luckyNumber == 777){\n                reward = amount.mul(jackpot777).div(10000);\n                loss = 0;\n                \n                _mint(msg.sender, reward);\n                \n            }else if(luckyNumber >= 900 || luckyNumber <= 100 ){\n                reward = amount.mul(smallBetBigWin).div(10000);\n                loss = 0;\n                \n                _mint(msg.sender, reward);\n                \n            }else if (luckyNumber >= 800 || luckyNumber <= 200){\n                reward = amount.mul(smallBetMediumWin).div(10000);\n                loss = amount.sub(reward);\n                \n                _burn(msg.sender, loss);\n                \n            }else if(luckyNumber >= 700 || luckyNumber <= 600){\n                reward = amount.mul(smallBetSmallWin).div(10000);\n                loss = amount.sub(reward);\n                \n                _burn(msg.sender, loss);\n                \n            }else if(luckyNumber < 700 && luckyNumber > 600){\n                reward = 0;\n                loss = amount;\n                \n                if (amount < 5){\n                    ownersCut = loss.mul(ownersPercent).div(10000);\n                    projectsCut = loss.mul(projectsPercent).div(10000);\n                    totalFees = ownersCut.add(projectsCut);\n                    feeAfterCuts = loss.sub(totalFees);\n                \n                    transfer(_owner, ownersCut);\n                    transfer(teamPayoutAddress, projectsCut);\n                \n                    _burn(msg.sender, feeAfterCuts);\n                }else {\n                    _burn(msg.sender, loss);\n                }\n\n        \n            }\n        }\n        \n        // ------------------------------------------------------------------------\n        //                             Medium Bet\n        // ------------------------------------------------------------------------\n        if(amount >= 11 && amount <= 50){\n            if(luckyNumber == 777){\n                reward = amount.mul(jackpot777).div(10000);\n                loss = 0;\n                \n                _mint(msg.sender, reward);\n                \n            }else if(luckyNumber >= 900 || luckyNumber <= 100 ){\n                reward = amount.mul(mediumBetBigWin).div(10000);\n                loss = 0;\n                \n                _mint(msg.sender, reward);\n                \n            }else if (luckyNumber >= 800 || luckyNumber <= 200){\n                reward = amount.mul(mediumBetMediumWin).div(10000);\n                loss = amount.sub(reward);\n                \n                _burn(msg.sender, loss);\n                \n            }else if(luckyNumber >= 700 || luckyNumber <= 600){\n                reward = amount.mul(mediumBetSmallWin).div(10000);\n                loss = amount.sub(reward);\n                \n                _burn(msg.sender, loss);\n                \n            }else if(luckyNumber < 700 && luckyNumber > 600){\n                reward = 0;\n                loss = amount;\n                \n                ownersCut = loss.mul(ownersPercent).div(10000);\n                projectsCut = loss.mul(projectsPercent).div(10000);\n                totalFees = ownersCut.add(projectsCut);\n                feeAfterCuts = loss.sub(totalFees);\n                \n                transfer(_owner, ownersCut);\n                transfer(teamPayoutAddress, projectsCut);\n                \n                _burn(msg.sender, feeAfterCuts);\n        \n            }\n        }\n        \n        // ------------------------------------------------------------------------\n        //                             Large Bet\n        // ------------------------------------------------------------------------\n        if(amount >= 51 && amount <= 100){\n            if(luckyNumber == 777){\n                reward = amount.mul(jackpot777).div(10000);\n                loss = 0;\n                \n                _mint(msg.sender, reward);\n                \n            }else if(luckyNumber >= 900 || luckyNumber <= 100 ){\n                reward = amount.mul(largeBetBigWin).div(10000);\n                loss = 0;\n                \n                _mint(msg.sender, reward);\n                \n            }else if (luckyNumber >= 800 || luckyNumber <= 200){\n                reward = amount.mul(largeBetMediumWin).div(10000);\n                loss = amount.sub(reward);\n                \n                _burn(msg.sender, loss);\n                \n            }else if(luckyNumber >= 700 || luckyNumber <= 600){\n                reward = amount.mul(largeBetSmallWin).div(10000);\n                loss = amount.sub(reward);\n                \n                _burn(msg.sender, loss);\n                \n            }else if(luckyNumber < 700 && luckyNumber > 600){\n                reward = 0;\n                loss = amount;\n                \n                ownersCut = loss.mul(ownersPercent).div(10000);\n                projectsCut = loss.mul(projectsPercent).div(10000);\n                totalFees = ownersCut.add(projectsCut);\n                feeAfterCuts = loss.sub(totalFees);\n                \n                transfer(_owner, ownersCut);\n                transfer(teamPayoutAddress, projectsCut);\n                \n                _burn(msg.sender, feeAfterCuts);\n        \n            }\n        }\n        \n        gameData memory gameData_ = gameData({\n            account: msg.sender,\n            session: sessionId,\n            amount: amount,\n            takeHome: reward,\n            loss: loss,\n            teamFee: totalFees,\n            luckyNumber: luckyNumber\n        });  \n        \n        addressGameHistory[msg.sender] = gameData_;\n        sessionGameHistory[sessionId] = gameData_;\n\n    }\n    \n    function returnSessionInfo(uint256 sessionID) public view returns (\n        address account, \n        uint256 session, \n        uint256 amount, \n        uint256 takeHome,\n        uint256 loss,\n        uint256 teamFee,\n        uint256 luckyNumber){\n        return (sessionGameHistory[sessionID].account,\n                sessionGameHistory[sessionID].session,\n                sessionGameHistory[sessionID].amount,\n                sessionGameHistory[sessionID].takeHome,\n                sessionGameHistory[sessionID].loss,\n                sessionGameHistory[sessionID].teamFee,\n                sessionGameHistory[sessionID].luckyNumber\n                \n        );\n    }\n\n    function rand() public view returns(uint256){\n        uint256 seed = uint256(keccak256(abi.encodePacked(\n        block.timestamp + block.difficulty +\n        ((uint256(keccak256(abi.encodePacked(block.coinbase)))) / (block.timestamp)) +\n        block.gaslimit + \n        ((uint256(keccak256(abi.encodePacked(msg.sender)))) / (block.timestamp)) +\n        block.number)));\n\n        return (seed - ((seed / 1000) * 1000));\n    }\n    \n}",
  "sourcePath": "D:/crypto/lucky-bet/lucky-bet/remix_testing/contracts/LuckyToken.sol",
  "compiler": {
    "name": "solc",
    "version": "0.6.2+commit.bacdbe57.Emscripten.clang"
  },
  "schemaVersion": "3.3.2",
  "updatedAt": "2020-12-23T00:35:41.051Z",
  "devdoc": {
    "methods": {
      "allowance(address,address)": {
        "details": "See {IERC20-allowance}."
      },
      "approve(address,uint256)": {
        "details": "See {IERC20-approve}.     * Requirements:     * - `spender` cannot be the zero address."
      },
      "balanceOf(address)": {
        "details": "See {IERC20-balanceOf}."
      },
      "decimals()": {
        "details": "Returns the number of decimals used to get its user representation. For example, if `decimals` equals `2`, a balance of `505` tokens should be displayed to a user as `5,05` (`505 / 10 ** 2`).     * Tokens usually opt for a value of 18, imitating the relationship between Ether and Wei. This is the value {ERC20} uses, unless {_setupDecimals} is called.     * NOTE: This information is only used for _display_ purposes: it in no way affects any of the arithmetic of the contract, including {IERC20-balanceOf} and {IERC20-transfer}."
      },
      "decreaseAllowance(address,uint256)": {
        "details": "Atomically decreases the allowance granted to `spender` by the caller.     * This is an alternative to {approve} that can be used as a mitigation for problems described in {IERC20-approve}.     * Emits an {Approval} event indicating the updated allowance.     * Requirements:     * - `spender` cannot be the zero address. - `spender` must have allowance for the caller of at least `subtractedValue`."
      },
      "getRoleAdmin(bytes32)": {
        "details": "Returns the admin role that controls `role`. See {grantRole} and {revokeRole}.     * To change a role's admin, use {_setRoleAdmin}."
      },
      "getRoleMember(bytes32,uint256)": {
        "details": "Returns one of the accounts that have `role`. `index` must be a value between 0 and {getRoleMemberCount}, non-inclusive.     * Role bearers are not sorted in any particular way, and their ordering may change at any point.     * WARNING: When using {getRoleMember} and {getRoleMemberCount}, make sure you perform all queries on the same block. See the following https://forum.openzeppelin.com/t/iterating-over-elements-on-enumerableset-in-openzeppelin-contracts/2296[forum post] for more information."
      },
      "getRoleMemberCount(bytes32)": {
        "details": "Returns the number of accounts that have `role`. Can be used together with {getRoleMember} to enumerate all bearers of a role."
      },
      "grantRole(bytes32,address)": {
        "details": "Grants `role` to `account`.     * If `account` had not been already granted `role`, emits a {RoleGranted} event.     * Requirements:     * - the caller must have ``role``'s admin role."
      },
      "hasRole(bytes32,address)": {
        "details": "Returns `true` if `account` has been granted `role`."
      },
      "increaseAllowance(address,uint256)": {
        "details": "Atomically increases the allowance granted to `spender` by the caller.     * This is an alternative to {approve} that can be used as a mitigation for problems described in {IERC20-approve}.     * Emits an {Approval} event indicating the updated allowance.     * Requirements:     * - `spender` cannot be the zero address."
      },
      "name()": {
        "details": "Returns the name of the token."
      },
      "renounceRole(bytes32,address)": {
        "details": "Revokes `role` from the calling account.     * Roles are often managed via {grantRole} and {revokeRole}: this function's purpose is to provide a mechanism for accounts to lose their privileges if they are compromised (such as when a trusted device is misplaced).     * If the calling account had been granted `role`, emits a {RoleRevoked} event.     * Requirements:     * - the caller must be `account`."
      },
      "revokeRole(bytes32,address)": {
        "details": "Revokes `role` from `account`.     * If `account` had been granted `role`, emits a {RoleRevoked} event.     * Requirements:     * - the caller must have ``role``'s admin role."
      },
      "symbol()": {
        "details": "Returns the symbol of the token, usually a shorter version of the name."
      },
      "totalSupply()": {
        "details": "See {IERC20-totalSupply}."
      },
      "transfer(address,uint256)": {
        "details": "See {IERC20-transfer}.     * Requirements:     * - `recipient` cannot be the zero address. - the caller must have a balance of at least `amount`."
      },
      "transferFrom(address,address,uint256)": {
        "details": "See {IERC20-transferFrom}.     * Emits an {Approval} event indicating the updated allowance. This is not required by the EIP. See the note at the beginning of {ERC20}.     * Requirements:     * - `sender` and `recipient` cannot be the zero address. - `sender` must have a balance of at least `amount`. - the caller must have allowance for ``sender``'s tokens of at least `amount`."
      }
    }
  },
  "userdoc": {
    "methods": {}
  }
}